{
  "abi": [
    {
      "inputs": [
        {
          "internalType": "address",
          "name": "_owner",
          "type": "address"
        }
      ],
      "stateMutability": "nonpayable",
      "type": "constructor"
    },
    {
      "anonymous": false,
      "inputs": [
        {
          "indexed": true,
          "internalType": "address",
          "name": "_caller",
          "type": "address"
        },
        {
          "indexed": true,
          "internalType": "address",
          "name": "_token",
          "type": "address"
        },
        {
          "indexed": false,
          "internalType": "uint256",
          "name": "_amount",
          "type": "uint256"
        }
      ],
      "name": "Deposit",
      "type": "event"
    },
    {
      "anonymous": false,
      "inputs": [
        {
          "indexed": false,
          "internalType": "address",
          "name": "account",
          "type": "address"
        }
      ],
      "name": "Paused",
      "type": "event"
    },
    {
      "anonymous": false,
      "inputs": [
        {
          "indexed": false,
          "internalType": "address",
          "name": "account",
          "type": "address"
        }
      ],
      "name": "Unpaused",
      "type": "event"
    },
    {
      "anonymous": false,
      "inputs": [
        {
          "indexed": true,
          "internalType": "address",
          "name": "_caller",
          "type": "address"
        },
        {
          "indexed": true,
          "internalType": "contract IERC20",
          "name": "_token",
          "type": "address"
        },
        {
          "indexed": false,
          "internalType": "uint256",
          "name": "_amount",
          "type": "uint256"
        }
      ],
      "name": "Withdraw",
      "type": "event"
    },
    {
      "inputs": [
        {
          "internalType": "address",
          "name": "",
          "type": "address"
        }
      ],
      "name": "balances",
      "outputs": [
        {
          "internalType": "uint256",
          "name": "",
          "type": "uint256"
        }
      ],
      "stateMutability": "view",
      "type": "function"
    },
    {
      "inputs": [
        {
          "internalType": "address",
          "name": "_token",
          "type": "address"
        }
      ],
      "name": "checkBalances",
      "outputs": [
        {
          "internalType": "uint256",
          "name": "",
          "type": "uint256"
        }
      ],
      "stateMutability": "view",
      "type": "function"
    },
    {
      "inputs": [
        {
          "internalType": "address",
          "name": "_token",
          "type": "address"
        },
        {
          "internalType": "uint256",
          "name": "_amount",
          "type": "uint256"
        }
      ],
      "name": "deposit",
      "outputs": [],
      "stateMutability": "nonpayable",
      "type": "function"
    },
    {
      "inputs": [
        {
          "internalType": "address",
          "name": "",
          "type": "address"
        }
      ],
      "name": "deposits",
      "outputs": [
        {
          "internalType": "uint256",
          "name": "",
          "type": "uint256"
        }
      ],
      "stateMutability": "view",
      "type": "function"
    },
    {
      "inputs": [],
      "name": "dispute",
      "outputs": [],
      "stateMutability": "nonpayable",
      "type": "function"
    },
    {
      "inputs": [],
      "name": "owner",
      "outputs": [
        {
          "internalType": "address",
          "name": "",
          "type": "address"
        }
      ],
      "stateMutability": "view",
      "type": "function"
    },
    {
      "inputs": [],
      "name": "pause",
      "outputs": [],
      "stateMutability": "nonpayable",
      "type": "function"
    },
    {
      "inputs": [],
      "name": "paused",
      "outputs": [
        {
          "internalType": "bool",
          "name": "",
          "type": "bool"
        }
      ],
      "stateMutability": "view",
      "type": "function"
    },
    {
      "inputs": [
        {
          "internalType": "address",
          "name": "",
          "type": "address"
        }
      ],
      "name": "payout",
      "outputs": [
        {
          "internalType": "uint256",
          "name": "",
          "type": "uint256"
        }
      ],
      "stateMutability": "view",
      "type": "function"
    },
    {
      "inputs": [
        {
          "internalType": "address",
          "name": "",
          "type": "address"
        }
      ],
      "name": "receivers",
      "outputs": [
        {
          "internalType": "bool",
          "name": "",
          "type": "bool"
        }
      ],
      "stateMutability": "view",
      "type": "function"
    },
    {
      "inputs": [
        {
          "internalType": "address",
          "name": "_participant",
          "type": "address"
        }
      ],
      "name": "removeDepositor",
      "outputs": [],
      "stateMutability": "nonpayable",
      "type": "function"
    },
    {
      "inputs": [
        {
          "internalType": "address",
          "name": "_participant",
          "type": "address"
        }
      ],
      "name": "removeReceiver",
      "outputs": [],
      "stateMutability": "nonpayable",
      "type": "function"
    },
    {
      "inputs": [],
      "name": "resetState",
      "outputs": [],
      "stateMutability": "nonpayable",
      "type": "function"
    },
    {
      "inputs": [
        {
          "internalType": "uint256",
          "name": "_percentage",
          "type": "uint256"
        },
        {
          "internalType": "address",
          "name": "_receiver",
          "type": "address"
        }
      ],
      "name": "setPayout",
      "outputs": [],
      "stateMutability": "nonpayable",
      "type": "function"
    },
    {
      "inputs": [
        {
          "internalType": "address",
          "name": "_receiver",
          "type": "address"
        }
      ],
      "name": "setReceivers",
      "outputs": [],
      "stateMutability": "nonpayable",
      "type": "function"
    },
    {
      "inputs": [
        {
          "internalType": "address",
          "name": "_participant",
          "type": "address"
        },
        {
          "internalType": "address",
          "name": "_token",
          "type": "address"
        }
      ],
      "name": "setWhitelistedDepositors",
      "outputs": [],
      "stateMutability": "nonpayable",
      "type": "function"
    },
    {
      "inputs": [
        {
          "internalType": "bool",
          "name": "_settlement",
          "type": "bool"
        },
        {
          "internalType": "address",
          "name": "_token",
          "type": "address"
        }
      ],
      "name": "settleDispute",
      "outputs": [],
      "stateMutability": "nonpayable",
      "type": "function"
    },
    {
      "inputs": [
        {
          "internalType": "uint256",
          "name": "",
          "type": "uint256"
        }
      ],
      "name": "tokens",
      "outputs": [
        {
          "internalType": "address",
          "name": "",
          "type": "address"
        }
      ],
      "stateMutability": "view",
      "type": "function"
    },
    {
      "inputs": [],
      "name": "unPause",
      "outputs": [],
      "stateMutability": "nonpayable",
      "type": "function"
    },
    {
      "inputs": [],
      "name": "underDispute",
      "outputs": [
        {
          "internalType": "bool",
          "name": "",
          "type": "bool"
        }
      ],
      "stateMutability": "view",
      "type": "function"
    },
    {
      "inputs": [
        {
          "internalType": "address",
          "name": "",
          "type": "address"
        }
      ],
      "name": "userBalances",
      "outputs": [
        {
          "internalType": "uint256",
          "name": "",
          "type": "uint256"
        }
      ],
      "stateMutability": "view",
      "type": "function"
    },
    {
      "inputs": [
        {
          "internalType": "uint256",
          "name": "_wait",
          "type": "uint256"
        }
      ],
      "name": "wait",
      "outputs": [],
      "stateMutability": "nonpayable",
      "type": "function"
    },
    {
      "inputs": [
        {
          "internalType": "address",
          "name": "",
          "type": "address"
        }
      ],
      "name": "whitelistedDepositors",
      "outputs": [
        {
          "internalType": "bool",
          "name": "",
          "type": "bool"
        }
      ],
      "stateMutability": "view",
      "type": "function"
    },
    {
      "inputs": [
        {
          "internalType": "address",
          "name": "",
          "type": "address"
        }
      ],
      "name": "whitelistedTokens",
      "outputs": [
        {
          "internalType": "bool",
          "name": "",
          "type": "bool"
        }
      ],
      "stateMutability": "view",
      "type": "function"
    },
    {
      "inputs": [
        {
          "internalType": "address",
          "name": "_to",
          "type": "address"
        }
      ],
      "name": "withdraw",
      "outputs": [],
      "stateMutability": "nonpayable",
      "type": "function"
    },
    {
      "inputs": [],
      "name": "withdrawTime",
      "outputs": [
        {
          "internalType": "uint256",
          "name": "",
          "type": "uint256"
        }
      ],
      "stateMutability": "view",
      "type": "function"
    }
  ],
  "bytecode": {
    "object": "0x608060405234801561001057600080fd5b5060405161149e38038061149e83398101604081905261002f91610062565b6000805460ff1916905560018055600480546001600160a01b0319166001600160a01b0392909216919091179055610092565b60006020828403121561007457600080fd5b81516001600160a01b038116811461008b57600080fd5b9392505050565b6113fd806100a16000396000f3fe608060405234801561001057600080fd5b506004361061018e5760003560e01c80636552d8b4116100de578063daf9c21011610097578063f7b188a511610071578063f7b188a5146103b1578063f9e19fa5146103b9578063fc7e286d146103c1578063fcd662b6146103e157600080fd5b8063daf9c21014610373578063e775c16514610396578063f240f7c3146103a957600080fd5b80636552d8b4146102fc5780637166ba381461030f5780638456cb59146103325780638b73e6061461033a5780638da5cb5b1461034d578063dab796ac1461036057600080fd5b806327e235e31161014b57806347e7ef241161012557806347e7ef24146102a05780634f64b2be146102b357806351cff8d9146102de5780635c975abb146102f157600080fd5b806327e235e3146102645780633a98a91f1461028457806345cb3dde1461029757600080fd5b80630980762e146101935780630b7e9c44146101a85780630cb8150f146101db57806311cd682d1461020e57806322863ac91461023757806326224c6414610244575b600080fd5b6101a66101a1366004611165565b6103f4565b005b6101c86101b6366004611198565b60086020526000908152604090205481565b6040519081526020015b60405180910390f35b6101fe6101e9366004611198565b60096020526000908152604090205460ff1681565b60405190151581526020016101d2565b6101c861021c366004611198565b6001600160a01b031660009081526006602052604090205490565b6002546101fe9060ff1681565b6101c8610252366004611198565b600a6020526000908152604090205481565b6101c8610272366004611198565b60066020526000908152604090205481565b6101a6610292366004611198565b6104ce565b6101c860055481565b6101a66102ae3660046111ba565b61051c565b6102c66102c13660046111e4565b61071e565b6040516001600160a01b0390911681526020016101d2565b6101a66102ec366004611198565b610748565b60005460ff166101fe565b6101a661030a366004611198565b610987565b6101fe61031d366004611198565b600b6020526000908152604090205460ff1681565b6101a66109d2565b6101a6610348366004611198565b610a06565b6004546102c6906001600160a01b031681565b6101a661036e36600461120b565b610a51565b6101fe610381366004611198565b600c6020526000908152604090205460ff1681565b6101a66103a4366004611229565b610ab5565b6101a6610b78565b6101a6610be9565b6101a6610c1b565b6101c86103cf366004611198565b60076020526000908152604090205481565b6101a66103ef3660046111e4565b610c91565b6004546001600160a01b031633146104275760405162461bcd60e51b815260040161041e9061124c565b60405180910390fd5b6001600160a01b038083166000908152600b60209081526040808320805460ff191660011790559284168252600c90529081205460ff16151590036104ca576003805460018082019092557fc2575a0e9e593c00f959f8c92f12db2869c3395a3b0502d05e2516446f71f85b0180546001600160a01b0319166001600160a01b0384169081179091556000908152600c60205260409020805460ff191690911790555b5050565b6004546001600160a01b031633146104f85760405162461bcd60e51b815260040161041e9061124c565b6001600160a01b03166000908152600960205260409020805460ff19166001179055565b610524610ccb565b336000818152600b6020526040902054839060ff16151560011461057a5760405162461bcd60e51b815260206004820152600d60248201526c2737ba103232b837b9b4ba37b960991b604482015260640161041e565b6001600160a01b0381166000908152600c602052604090205460ff1615156001146105e75760405162461bcd60e51b815260206004820152601760248201527f4e6f742061206465706f73697461626c6520746f6b656e000000000000000000604482015260640161041e565b6000831161062a5760405162461bcd60e51b815260206004820152601060248201526f043616e6e6f74206465706f73697420360841b604482015260640161041e565b60025460ff1615156001036106715760405162461bcd60e51b815260206004820152600d60248201526c556e646572204469737075746560981b604482015260640161041e565b6001600160a01b038416600090815260066020526040812080548592906106999084906112a7565b9091555050336000908152600a6020526040812080548592906106bd9084906112a7565b909155506106d890506001600160a01b038516333086610d11565b6040518381526001600160a01b0385169033907f5548c837ab068cf56a2c2479df0882a4922fd203edb7517321831d95078c5f629060200160405180910390a350505050565b6003818154811061072e57600080fd5b6000918252602090912001546001600160a01b0316905081565b610750610d82565b610758610dcb565b3360008181526009602052604090205460ff1615156001146107ab5760405162461bcd60e51b815260206004820152600c60248201526b2737ba102932b1b2b4bb32b960a11b604482015260640161041e565b60055442116107f25760405162461bcd60e51b815260206004820152601360248201527210d85b9b9bdd081dda5d1a191c985dc81e595d606a1b604482015260640161041e565b60025460ff1615156001036108395760405162461bcd60e51b815260206004820152600d60248201526c556e646572204469737075746560981b604482015260640161041e565b60005b6003548110156109795760006003828154811061085b5761085b6112bf565b6000918252602080832090910154338352600882526040808420546001600160a01b0390921680855260069093528320549193506103e89161089d91906112d5565b6108a791906112f4565b905080156109245760405163a9059cbb60e01b81526001600160a01b0386811660048301526024820183905283169063a9059cbb906044016020604051808303816000875af11580156108fe573d6000803e3d6000fd5b505050506040513d601f19601f820116820180604052508101906109229190611316565b505b6040518181526001600160a01b0383169033907f9b1bfa7fa9ee420a16e124f794c35ac9f90472acc99140eb2f6447c714cad8eb9060200160405180910390a35050808061097190611333565b91505061083c565b505061098460018055565b50565b6004546001600160a01b031633146109b15760405162461bcd60e51b815260040161041e9061124c565b6001600160a01b03166000908152600960205260409020805460ff19169055565b6004546001600160a01b031633146109fc5760405162461bcd60e51b815260040161041e9061124c565b610a04610e24565b565b6004546001600160a01b03163314610a305760405162461bcd60e51b815260040161041e9061124c565b6001600160a01b03166000908152600b60205260409020805460ff19169055565b336000908152600b602052604090205460ff161515600114610a7257600080fd5b811515600103610a8a576002805460ff191690555050565b336000818152600a602052604090205490610ab0906001600160a01b0384169083610e7e565b505050565b6004546001600160a01b03163314610adf5760405162461bcd60e51b815260040161041e9061124c565b6001600160a01b03811660009081526009602052604090205460ff161515600114610b435760405162461bcd60e51b81526020600482015260146024820152733737ba1030903b30b634b2103932b1b2b4bb32b960611b604482015260640161041e565b600082118015610b5557506103e88211155b610b5e57600080fd5b6001600160a01b0316600090815260086020526040902055565b336000908152600b602052604090205460ff161515600114610bcc5760405162461bcd60e51b815260206004820152600d60248201526c2737ba102232b837b9b4ba37b960991b604482015260640161041e565b6005544210610bda57600080fd5b6002805460ff19166001179055565b6004546001600160a01b03163314610c135760405162461bcd60e51b815260040161041e9061124c565b610a04610eae565b6004546001600160a01b03163314610c455760405162461bcd60e51b815260040161041e9061124c565b60005b600354811015610984576003600081548110610c6657610c666112bf565b600091825260209091200180546001600160a01b031916905580610c8981611333565b915050610c48565b6004546001600160a01b03163314610cbb5760405162461bcd60e51b815260040161041e9061124c565b610cc581426112a7565b60055550565b60005460ff1615610a045760405162461bcd60e51b815260206004820152601060248201526f14185d5cd8589b194e881c185d5cd95960821b604482015260640161041e565b6040516001600160a01b0380851660248301528316604482015260648101829052610d7c9085906323b872dd60e01b906084015b60408051601f198184030181529190526020810180516001600160e01b03166001600160e01b031990931692909217909152610ee7565b50505050565b60005460ff16610a045760405162461bcd60e51b815260206004820152601460248201527314185d5cd8589b194e881b9bdd081c185d5cd95960621b604482015260640161041e565b600260015403610e1d5760405162461bcd60e51b815260206004820152601f60248201527f5265656e7472616e637947756172643a207265656e7472616e742063616c6c00604482015260640161041e565b6002600155565b610e2c610ccb565b6000805460ff191660011790557f62e78cea01bee320cd4e420270b5ea74000d11b0c9f74754ebdbfc544b05a258610e613390565b6040516001600160a01b03909116815260200160405180910390a1565b6040516001600160a01b038316602482015260448101829052610ab090849063a9059cbb60e01b90606401610d45565b610eb6610d82565b6000805460ff191690557f5db9ee0a495bf2e6ff9c91a7834c1ba4fdd244a5e8aa4e537bd38aeae4b073aa33610e61565b6000610f3c826040518060400160405280602081526020017f5361666545524332303a206c6f772d6c6576656c2063616c6c206661696c6564815250856001600160a01b0316610fb99092919063ffffffff16565b805190915015610ab05780806020019051810190610f5a9190611316565b610ab05760405162461bcd60e51b815260206004820152602a60248201527f5361666545524332303a204552433230206f7065726174696f6e20646964206e6044820152691bdd081cdd58d8d9595960b21b606482015260840161041e565b6060610fc88484600085610fd0565b949350505050565b6060824710156110315760405162461bcd60e51b815260206004820152602660248201527f416464726573733a20696e73756666696369656e742062616c616e636520666f6044820152651c8818d85b1b60d21b606482015260840161041e565b600080866001600160a01b0316858760405161104d9190611378565b60006040518083038185875af1925050503d806000811461108a576040519150601f19603f3d011682016040523d82523d6000602084013e61108f565b606091505b50915091506110a0878383876110ab565b979650505050505050565b6060831561111a578251600003611113576001600160a01b0385163b6111135760405162461bcd60e51b815260206004820152601d60248201527f416464726573733a2063616c6c20746f206e6f6e2d636f6e7472616374000000604482015260640161041e565b5081610fc8565b610fc8838381511561112f5781518083602001fd5b8060405162461bcd60e51b815260040161041e9190611394565b80356001600160a01b038116811461116057600080fd5b919050565b6000806040838503121561117857600080fd5b61118183611149565b915061118f60208401611149565b90509250929050565b6000602082840312156111aa57600080fd5b6111b382611149565b9392505050565b600080604083850312156111cd57600080fd5b6111d683611149565b946020939093013593505050565b6000602082840312156111f657600080fd5b5035919050565b801515811461098457600080fd5b6000806040838503121561121e57600080fd5b8235611181816111fd565b6000806040838503121561123c57600080fd5b8235915061118f60208401611149565b60208082526025908201527f4f6e6c7920746865206f776e65722063616e2063616c6c20746869732066756e60408201526431ba34b7b760d91b606082015260800190565b634e487b7160e01b600052601160045260246000fd5b600082198211156112ba576112ba611291565b500190565b634e487b7160e01b600052603260045260246000fd5b60008160001904831182151516156112ef576112ef611291565b500290565b60008261131157634e487b7160e01b600052601260045260246000fd5b500490565b60006020828403121561132857600080fd5b81516111b3816111fd565b60006001820161134557611345611291565b5060010190565b60005b8381101561136757818101518382015260200161134f565b83811115610d7c5750506000910152565b6000825161138a81846020870161134c565b9190910192915050565b60208152600082518060208401526113b381604085016020870161134c565b601f01601f1916919091016040019291505056fea264697066735822122031590dadfcef9efc41233e573b33a8bb9e53f0681f2c8829181749f19a8c55e564736f6c634300080f0033",
    "linkReferences": {}
  },
  "methodIdentifiers": {
    "balances(address)": "27e235e3",
    "checkBalances(address)": "11cd682d",
    "deposit(address,uint256)": "47e7ef24",
    "deposits(address)": "fc7e286d",
    "dispute()": "f240f7c3",
    "owner()": "8da5cb5b",
    "pause()": "8456cb59",
    "paused()": "5c975abb",
    "payout(address)": "0b7e9c44",
    "receivers(address)": "0cb8150f",
    "removeDepositor(address)": "8b73e606",
    "removeReceiver(address)": "6552d8b4",
    "resetState()": "f9e19fa5",
    "setPayout(uint256,address)": "e775c165",
    "setReceivers(address)": "3a98a91f",
    "setWhitelistedDepositors(address,address)": "0980762e",
    "settleDispute(bool,address)": "dab796ac",
    "tokens(uint256)": "4f64b2be",
    "unPause()": "f7b188a5",
    "underDispute()": "22863ac9",
    "userBalances(address)": "26224c64",
    "wait(uint256)": "fcd662b6",
    "whitelistedDepositors(address)": "7166ba38",
    "whitelistedTokens(address)": "daf9c210",
    "withdraw(address)": "51cff8d9",
    "withdrawTime()": "45cb3dde"
  },
  "id": 17
}