{
  "abi": [
    {
      "inputs": [
        {
          "internalType": "address",
          "name": "_stakingToken",
          "type": "address"
        },
        {
          "internalType": "address",
          "name": "_owner",
          "type": "address"
        }
      ],
      "stateMutability": "nonpayable",
      "type": "constructor"
    },
    {
      "inputs": [],
      "name": "NotOwner",
      "type": "error"
    },
    {
      "inputs": [],
      "name": "TransferFailed",
      "type": "error"
    },
    {
      "anonymous": false,
      "inputs": [
        {
          "indexed": true,
          "internalType": "address",
          "name": "_caller",
          "type": "address"
        },
        {
          "indexed": false,
          "internalType": "uint256",
          "name": "_amount",
          "type": "uint256"
        }
      ],
      "name": "Deposit",
      "type": "event"
    },
    {
      "anonymous": false,
      "inputs": [
        {
          "indexed": true,
          "internalType": "address",
          "name": "_caller",
          "type": "address"
        },
        {
          "indexed": false,
          "internalType": "uint256",
          "name": "_rewards",
          "type": "uint256"
        }
      ],
      "name": "RewardDeposit",
      "type": "event"
    },
    {
      "anonymous": false,
      "inputs": [
        {
          "indexed": true,
          "internalType": "address",
          "name": "_account",
          "type": "address"
        },
        {
          "indexed": false,
          "internalType": "uint256",
          "name": "_reward",
          "type": "uint256"
        }
      ],
      "name": "RewardsClaimed",
      "type": "event"
    },
    {
      "anonymous": false,
      "inputs": [
        {
          "indexed": true,
          "internalType": "address",
          "name": "_caller",
          "type": "address"
        },
        {
          "indexed": false,
          "internalType": "uint256",
          "name": "_amount",
          "type": "uint256"
        }
      ],
      "name": "Withdraw",
      "type": "event"
    },
    {
      "inputs": [
        {
          "internalType": "address",
          "name": "_staker",
          "type": "address"
        }
      ],
      "name": "balance",
      "outputs": [
        {
          "internalType": "uint256",
          "name": "",
          "type": "uint256"
        }
      ],
      "stateMutability": "view",
      "type": "function"
    },
    {
      "inputs": [
        {
          "internalType": "address",
          "name": "",
          "type": "address"
        }
      ],
      "name": "balances",
      "outputs": [
        {
          "internalType": "uint256",
          "name": "",
          "type": "uint256"
        }
      ],
      "stateMutability": "view",
      "type": "function"
    },
    {
      "inputs": [
        {
          "internalType": "address",
          "name": "_staker",
          "type": "address"
        }
      ],
      "name": "checkRewards",
      "outputs": [
        {
          "internalType": "uint256",
          "name": "",
          "type": "uint256"
        }
      ],
      "stateMutability": "view",
      "type": "function"
    },
    {
      "inputs": [
        {
          "internalType": "uint256",
          "name": "_amount",
          "type": "uint256"
        }
      ],
      "name": "deposit",
      "outputs": [],
      "stateMutability": "nonpayable",
      "type": "function"
    },
    {
      "inputs": [
        {
          "internalType": "address",
          "name": "account",
          "type": "address"
        }
      ],
      "name": "earned",
      "outputs": [
        {
          "internalType": "uint256",
          "name": "",
          "type": "uint256"
        }
      ],
      "stateMutability": "view",
      "type": "function"
    },
    {
      "inputs": [],
      "name": "getRewardForDuration",
      "outputs": [
        {
          "internalType": "uint256",
          "name": "",
          "type": "uint256"
        }
      ],
      "stateMutability": "view",
      "type": "function"
    },
    {
      "inputs": [
        {
          "internalType": "uint256",
          "name": "_rewards",
          "type": "uint256"
        }
      ],
      "name": "issuanceRate",
      "outputs": [],
      "stateMutability": "nonpayable",
      "type": "function"
    },
    {
      "inputs": [],
      "name": "lastTimeRewardApplicable",
      "outputs": [
        {
          "internalType": "uint256",
          "name": "",
          "type": "uint256"
        }
      ],
      "stateMutability": "view",
      "type": "function"
    },
    {
      "inputs": [],
      "name": "lastUpdateTime",
      "outputs": [
        {
          "internalType": "uint256",
          "name": "",
          "type": "uint256"
        }
      ],
      "stateMutability": "view",
      "type": "function"
    },
    {
      "inputs": [],
      "name": "owner",
      "outputs": [
        {
          "internalType": "address",
          "name": "",
          "type": "address"
        }
      ],
      "stateMutability": "view",
      "type": "function"
    },
    {
      "inputs": [],
      "name": "periodFinish",
      "outputs": [
        {
          "internalType": "uint256",
          "name": "",
          "type": "uint256"
        }
      ],
      "stateMutability": "view",
      "type": "function"
    },
    {
      "inputs": [],
      "name": "rewardPerToken",
      "outputs": [
        {
          "internalType": "uint256",
          "name": "",
          "type": "uint256"
        }
      ],
      "stateMutability": "view",
      "type": "function"
    },
    {
      "inputs": [],
      "name": "rewardPerTokenStored",
      "outputs": [
        {
          "internalType": "uint256",
          "name": "",
          "type": "uint256"
        }
      ],
      "stateMutability": "view",
      "type": "function"
    },
    {
      "inputs": [],
      "name": "rewardRate",
      "outputs": [
        {
          "internalType": "uint256",
          "name": "",
          "type": "uint256"
        }
      ],
      "stateMutability": "view",
      "type": "function"
    },
    {
      "inputs": [
        {
          "internalType": "address",
          "name": "",
          "type": "address"
        }
      ],
      "name": "rewards",
      "outputs": [
        {
          "internalType": "uint256",
          "name": "",
          "type": "uint256"
        }
      ],
      "stateMutability": "view",
      "type": "function"
    },
    {
      "inputs": [],
      "name": "rewardsDuration",
      "outputs": [
        {
          "internalType": "uint256",
          "name": "",
          "type": "uint256"
        }
      ],
      "stateMutability": "view",
      "type": "function"
    },
    {
      "inputs": [],
      "name": "stakingToken",
      "outputs": [
        {
          "internalType": "contract IArtemisERC20",
          "name": "",
          "type": "address"
        }
      ],
      "stateMutability": "view",
      "type": "function"
    },
    {
      "inputs": [],
      "name": "totalSupply",
      "outputs": [
        {
          "internalType": "uint256",
          "name": "",
          "type": "uint256"
        }
      ],
      "stateMutability": "view",
      "type": "function"
    },
    {
      "inputs": [
        {
          "internalType": "address",
          "name": "",
          "type": "address"
        }
      ],
      "name": "userRewardPerTokenPaid",
      "outputs": [
        {
          "internalType": "uint256",
          "name": "",
          "type": "uint256"
        }
      ],
      "stateMutability": "view",
      "type": "function"
    },
    {
      "inputs": [
        {
          "internalType": "uint256",
          "name": "_amount",
          "type": "uint256"
        }
      ],
      "name": "withdraw",
      "outputs": [],
      "stateMutability": "nonpayable",
      "type": "function"
    }
  ],
  "bytecode": {
    "object": "0x60806040526000600755600060085562278d0060095534801561002157600080fd5b50604051610e0f380380610e0f83398101604081905261004091610092565b6001600055600b80546001600160a01b039384166001600160a01b031991821617909155600a80549290931691161790556100c5565b80516001600160a01b038116811461008d57600080fd5b919050565b600080604083850312156100a557600080fd5b6100ae83610076565b91506100bc60208401610076565b90509250929050565b610d3b806100d46000396000f3fe608060405234801561001057600080fd5b506004361061012b5760003560e01c806380faa57d116100ad578063c8f33c9111610071578063c8f33c911461026d578063cd3daf9d14610276578063df136d651461027e578063e3d670d714610287578063ebe2b12b146102b057600080fd5b806380faa57d1461020c5780638b876347146102145780638da5cb5b14610234578063aba9c62814610247578063b6b55f251461025a57600080fd5b806327e235e3116100f457806327e235e31461019a5780632e1a7d4d146101ba578063386a9525146101cf57806372f702f3146101d85780637b0a47ee1461020357600080fd5b80628cc26214610130578063046ff0d3146101565780630700037d1461016957806318160ddd146101895780631c1f78eb14610192575b600080fd5b61014361013e366004610bfb565b6102b9565b6040519081526020015b60405180910390f35b610143610164366004610bfb565b610336565b610143610177366004610bfb565b60026020526000908152604090205481565b61014360045481565b610143610341565b6101436101a8366004610bfb565b60036020526000908152604090205481565b6101cd6101c8366004610c2b565b610358565b005b61014360095481565b600b546101eb906001600160a01b031681565b6040516001600160a01b03909116815260200161014d565b61014360085481565b610143610567565b610143610222366004610bfb565b60016020526000908152604090205481565b600a546101eb906001600160a01b031681565b6101cd610255366004610c2b565b61057e565b6101cd610268366004610c2b565b6107df565b61014360055481565b6101436109fa565b61014360065481565b610143610295366004610bfb565b6001600160a01b031660009081526003602052604090205490565b61014360075481565b6001600160a01b0381166000908152600260209081526040808320546001909252822054670de0b6b3a7640000906102ef6109fa565b6102f99190610c5a565b6001600160a01b03851660009081526003602052604090205461031c9190610c71565b6103269190610c90565b6103309190610cb2565b92915050565b6000610330826102b9565b60006009546008546103539190610c71565b905090565b610360610a5b565b336103696109fa565b600655610374610567565b6005556001600160a01b038116156103bb5761038f816102b9565b6001600160a01b0382166000908152600260209081526040808320939093556006546001909152919020555b600082116104045760405162461bcd60e51b8152602060048201526011602482015270043616e6e6f74205769746864726177203607c1b60448201526064015b60405180910390fd5b336000908152600360205260409020548211156104595760405162461bcd60e51b8152602060048201526013602482015272496e737566666963656e742042616c616e636560681b60448201526064016103fb565b6104638233610ab4565b33600090815260036020526040812083905560048054849290610487908490610c5a565b9091555050600b5460405163a9059cbb60e01b8152336004820152602481018490526000916001600160a01b03169063a9059cbb906044016020604051808303816000875af11580156104de573d6000803e3d6000fd5b505050506040513d601f19601f820116820180604052508101906105029190610cca565b905080610522576040516312171d8360e31b815260040160405180910390fd5b60405183815233907f884edad9ce6fa2440d8a54cc123490eb96d2768479d49ff9c7366125a9424364906020015b60405180910390a250506105646001600055565b50565b60006007544210610579575060075490565b504290565b610586610a5b565b60006105906109fa565b60065561059b610567565b6005556001600160a01b038116156105e2576105b6816102b9565b6001600160a01b0382166000908152600260209081526040808320939093556006546001909152919020555b600a546001600160a01b0316331461060d576040516330cd747160e01b815260040160405180910390fd5b600082116106535760405162461bcd60e51b8152602060048201526013602482015272052657761726473206d757374206265203e203606c1b60448201526064016103fb565b60045460000361069a5760405162461bcd60e51b81526020600482015260126024820152710537570706c79206d757374206265203e20360741b60448201526064016103fb565b60075442106106b8576009546106b09083610c90565b6008556106fa565b6000426007546106c89190610c5a565b90506000600854826106da9190610c71565b6009549091506106ea8286610cb2565b6106f49190610c90565b60085550505b600b546040516323b872dd60e01b8152336004820152306024820152604481018490526000916001600160a01b0316906323b872dd906064016020604051808303816000875af1158015610752573d6000803e3d6000fd5b505050506040513d601f19601f820116820180604052508101906107769190610cca565b42600581905560095491925061078c9190610cb2565b600755806107ad576040516312171d8360e31b815260040160405180910390fd5b60405183815233907f95bf5847357310d24f8d03d8bad76c8ee329dfd3a3cb200df21c7bd1619e93bd90602001610550565b6107e7610a5b565b336107f06109fa565b6006556107fb610567565b6005556001600160a01b0381161561084257610816816102b9565b6001600160a01b0382166000908152600260209081526040808320939093556006546001909152919020555b600b546040516370a0823160e01b81523360048201526000916001600160a01b0316906370a0823190602401602060405180830381865afa15801561088b573d6000803e3d6000fd5b505050506040513d601f19601f820116820180604052508101906108af9190610cec565b116108ef5760405162461bcd60e51b815260206004820152601060248201526f043616e6e6f74206465706f73697420360841b60448201526064016103fb565b336000908152600360205260408120805484929061090e908490610cb2565b9250508190555081600460008282546109279190610cb2565b9091555050600b546040516323b872dd60e01b8152336004820152306024820152604481018490526000916001600160a01b0316906323b872dd906064016020604051808303816000875af1158015610984573d6000803e3d6000fd5b505050506040513d601f19601f820116820180604052508101906109a89190610cca565b9050806109c8576040516312171d8360e31b815260040160405180910390fd5b60405183815233907fe1fffcc4923d04b559f4d29a8bfc6cda04eb5b0d3c460751c2402c5c5cc9109c90602001610550565b6000600454600003610a0d575060065490565b600454600854600554610a1e610567565b610a289190610c5a565b610a329190610c71565b610a4490670de0b6b3a7640000610c71565b610a4e9190610c90565b6006546103539190610cb2565b600260005403610aad5760405162461bcd60e51b815260206004820152601f60248201527f5265656e7472616e637947756172643a207265656e7472616e742063616c6c0060448201526064016103fb565b6002600055565b6001600160a01b0381166000908152600360209081526040808320546002909252822054610ae3908590610c71565b610aed9190610c90565b6001600160a01b038316600090815260026020526040812080549293508392909190610b1a908490610c5a565b90915550506040518181526001600160a01b038316907ffc30cddea38e2bf4d6ea7d3f9ed3b6ad7f176419f4963bd81318067a4aee73fe9060200160405180910390a2600b5460405163a9059cbb60e01b81526001600160a01b03848116600483015260248201849052600092169063a9059cbb906044016020604051808303816000875af1158015610bb1573d6000803e3d6000fd5b505050506040513d601f19601f82011682018060405250810190610bd59190610cca565b905080610bf5576040516312171d8360e31b815260040160405180910390fd5b50505050565b600060208284031215610c0d57600080fd5b81356001600160a01b0381168114610c2457600080fd5b9392505050565b600060208284031215610c3d57600080fd5b5035919050565b634e487b7160e01b600052601160045260246000fd5b600082821015610c6c57610c6c610c44565b500390565b6000816000190483118215151615610c8b57610c8b610c44565b500290565b600082610cad57634e487b7160e01b600052601260045260246000fd5b500490565b60008219821115610cc557610cc5610c44565b500190565b600060208284031215610cdc57600080fd5b81518015158114610c2457600080fd5b600060208284031215610cfe57600080fd5b505191905056fea2646970667358221220675bf3da42c72ea15b1b32aec10698f1fb255fe61e3fb9e36e42195d8d1036c064736f6c634300080f0033",
    "linkReferences": {}
  },
  "methodIdentifiers": {
    "balance(address)": "e3d670d7",
    "balances(address)": "27e235e3",
    "checkRewards(address)": "046ff0d3",
    "deposit(uint256)": "b6b55f25",
    "earned(address)": "008cc262",
    "getRewardForDuration()": "1c1f78eb",
    "issuanceRate(uint256)": "aba9c628",
    "lastTimeRewardApplicable()": "80faa57d",
    "lastUpdateTime()": "c8f33c91",
    "owner()": "8da5cb5b",
    "periodFinish()": "ebe2b12b",
    "rewardPerToken()": "cd3daf9d",
    "rewardPerTokenStored()": "df136d65",
    "rewardRate()": "7b0a47ee",
    "rewards(address)": "0700037d",
    "rewardsDuration()": "386a9525",
    "stakingToken()": "72f702f3",
    "totalSupply()": "18160ddd",
    "userRewardPerTokenPaid(address)": "8b876347",
    "withdraw(uint256)": "2e1a7d4d"
  },
  "id": 18
}